:060000000A128A11142906
:10000800F000030EF1000B1810200B191C20710EC4
:100018008300F00E700E090003138312061CA00A59
:1000280020088500861CA003200885000B10080006
:1000380003138312FD3081000B11860129182E2825
:10004800A918322829193628A9193A282408870016
:1000580006153E28250887008615412826088700AA
:100068000616442827088700861647282808870088
:1000780006174A280130A90608000330A906080017
:100088000630A90608000C30A9060800A9010800D6
:100200008A010A140F3982073F3406345B344F34B5
:1002100066346D347D3407347F34673477347C340E
:1002200039345E34793471340317831688018901B7
:1002300003138316003085000614861406118611F8
:1002400006128612061381131514951400308700C8
:1002500000308800702167217721862103138312E3
:100260008501860187018801031383123A21412108
:100270005121342920080F39A200200E0F39A30084
:10028000080022080021A40023080021A5002A0854
:100290000021A6002B080021A7002C080021A8009F
:1002A0000800AA010508AC0064302C020318AA0A51
:1002B0000318AC0003185429AB010A302C020318B0
:1002C000AB0A0318AC0003185D29031C08000313D4
:1002D0008316161496140313831206080B100800D5
:1002E000031383160F138F160F120F140800031336
:1002F00083168112811101158114011403138312D5
:1003000003138312FD3081000B1108008B178B152E
:080310000B108B160B11080005
:04400E00C430FF3F7C
:00000001FF
