:020000040000FA
:060000000A128A11122809
:10000800FE00030E83120313A3000408A4000A08C9
:10001800A5007F08A6000A128A11A62A0A128A11C8
:100028001528F80183010A128A11F62BFF1B2428D0
:1000380083137F1883170008840A0319FF0A08002E
:100048007F087F398A000408840A0319FF0A82009E
:100200002034343420342D3420345034613472346A
:100210006134203467346934723461347234203488
:100220006834613463346934613420346C3461344B
:10023000203469347A3471347534693465347234F5
:1002400064346134203465346C3420346334613474
:10025000723472346F342E3420340D3400340D3443
:10026000203449344E3453345434523455344334A6
:10027000433449344F344E344534533420345034AD
:1002800041345234413420344C344F3453342034CC
:1002900043344F344D3441344E3444344F3453346A
:1002A0002034443445344C342034433441345234C3
:1002B00052344F343A3420340D3400342034363440
:1002C00020342D342034503461347234613420347D
:1002D0006734693472346134723420346834613480
:1002E00063346934613420346C34613420346434D0
:1002F0006534723465346334683461342034653471
:100300006C34203463346134723472346F342E347C
:1003100020340D3400340D34203445346C34203412
:1003200063346134723472346F342034653473341E
:1003300074346134203467346934723461346E3417
:1003400064346F342034613420346C3461342034AC
:1003500069347A3471347534693465347234643490
:1003600061342E342E342E3420340D3400340D34C8
:10037000203445346C342034633461347234723444
:100380006F3420346534733474346134203467340A
:100390006934723461346E3464346F3420346134BF
:1003A00020346C3461342034643465347234653400
:1003B0006334683461342E342E342E3420340D34BA
:1003C0000034203445346C34203463346134723466
:1003D00072346F34203468346134203464346534CA
:1003E0006A34613464346F342034643465342034C6
:1003F000673469347234613472342E3420340D34ED
:1004000000342034323420342D34203450346134DC
:1004100072346134203465346E34633465346E3440
:1004200064346534723420346C3461347334203471
:100430006C3475346334653473342E3420340D34A5
:1004400000340D34203445346C342034633461344A
:10045000723472346F3420346534733474346134DC
:1004600020346134763461346E347A3461346E34DD
:1004700064346F342E342E342E3420340D34003452
:100480000D342034383420342D3420345034613449
:100490007234613420346134763461346E347A34A9
:1004A00061347234203465346C3420346334613404
:1004B000723472346F342E3420340D3400342034CE
:1004C00045346C34203463346134723472346F34A4
:1004D0002034733465342034683461342034643417
:1004E0006534743465346E34693464346F342E3456
:1004F00020340D3400340D3420344C3475346334DE
:1005000065347334203465346E34633465346E344A
:10051000643469346434613473342E342E342E34AC
:1005200020340D34003420344C3475346334653455
:10053000733420346134703461346734613464342A
:10054000613473342E3420340D3400340C1FA92A46
:10055000AA2A022B1F0CA000200C0F39093A031DF8
:10056000B22AB32ABA2A1E08A0000310200C7C3E2F
:100570009500FF2A1F0CA000200C0F390B3A031D19
:10058000C22AC32ACA2A1E08A0000310200C7C3EDF
:100590009B00FF2A1F0CA000200C0F390D3A031DF1
:1005A000D22AD32AFF2A1E08A0002008F8005630BD
:1005B00078020318DC2ADD2AE22A0A128A11B325FE
:1005C0000A128A11AB3078020318E72AE82AF32AC4
:1005D00056307802031CED2AEE2AF32A0A128A11F9
:1005E0009A250A128A11AB307802031CF82AF92ADC
:1005F000FF2A0A128A1181250A128A11FF2A831200
:1006000003130C130B1C052B062B1F2B0618092B91
:100610000A2B0C2B0814112B061C0F2B102B112B43
:1006200008108618142B152B182B091489141E2B4F
:10063000861C1B2B1C2B1E2B091089100B108C1ECB
:10064000222B232BE92B38301A06031D282B292BAC
:100650005E2B063083120313A2001330A100AD30CD
:10066000A000A00B312BA10B312BA20B312B213081
:10067000F1008230F2000A128A115B250A128A11F7
:10068000831203130814153083120313A2004B3096
:10069000A100BD30A000A00B4B2BA10B4B2BA20B3C
:1006A0004B2B522B8312031308105F30F100823062
:1006B000F2000A128A115B250A128A113530831260
:1006C00003131A06031D652B662B8F2B7B30F1005D
:1006D0008230F2000A128A115B250A128A118312F3
:1006E000031309148914153083120313A2004B302D
:1006F000A100BD30A000A00B7B2BA10B7B2BA20B7C
:100700007B2B822B83120313091089109330F10085
:100710008230F2000A128A115B250A128A113430E3
:10072000831203131A06031D962B972BBC2B0A1258
:100730008A11B3250A128A118B30F1008130F20040
:100740000A128A115B250A128A110B3083120313D5
:10075000A2002630A1005D30A000A00BAD2BA10BA4
:10076000AD2BA20BAD2BE130F1008130F2000A126B
:100770008A115B250A128A113630831203131A0676
:10078000031DC32BC42BE92B0A128A1181250A12DF
:100790008A11B730F1008130F2000A128A115B250C
:1007A0000A128A110B3083120313A2002630A10013
:1007B0005D30A000A00BDA2BA10BDA2BA20BDA2BF9
:1007C000E130F1008130F2000A128A115B250A1231
:1007D0008A11831203132608FF0025088A002408C3
:1007E0008400230E8300FE0E7E0E09000A128A1179
:1007F000AF240A128A11831203139F140330831249
:100800000313B1008A30B0005530AF00AF0B062C97
:10081000B00B062CB10B062C2F3083120313A8004B
:100820008130A9000A128A1133250A128A11033075
:1008300083120313B1008A30B0005530AF00AF0B04
:100840001F2CB00B1F2CB10B1F2C40308312031335
:10085000A8008230A9000A128A1133250A128A11CF
:10086000033083120313B1008A30B0005530AF005B
:10087000AF0B382CB00B382CB10B382C0130831255
:100880000313A8008230A9000A128A1133250A1224
:100890008A11033083120313B1008A30B00055303F
:1008A000AF00AF0B512CB00B512CB10B512C0030C1
:1008B00083120313A8008130A9000A128A1133257C
:1008C0000A128A11033083120313B1008A30B00078
:1008D0005530AF00AF0B6A2CB00B6A2CB10B6A2CF1
:1008E0005E3083120313A8008130A9000A128A1116
:1008F00033250A128A11831203139F18802C812C2E
:100900007B2C1F0CAF002F0C0F39093A031D892CCB
:100910008A2C8F2C1F08C3392C389F00A12C1F0C48
:10092000AF002F0C0F390B3A031D972C982C9D2CE0
:100930001F08C33934389F00A12C1F08C33924383D
:100940009F00203083120313AF00AF0BA52C0000D3
:10095000831203139F147B2C0A128A111228831608
:1009600003130F178F160F160F1483160317880122
:100970002A3089008316031306148614861506167A
:1009800086160710871007110810881009108910A3
:10099000831203138501860187018801890183166B
:1009A0000313811303309500161496149F131F121E
:1009B0009F12831203131F083F3980389F001F14B2
:1009C0001F08C33924389F00203083120313A70067
:1009D000A70BE82C00008316031307158714F930C2
:1009E00092003F308312031397051708F0390C3833
:1009F00097000F3095001D08F0390C389D000F301E
:100A00009B00CF3097051D129D128C10033092046D
:100A100012158C1C0C2D0D2D092D8C108316031313
:100A2000071187108B170B170C17831203130C1366
:100A30000B148B158316031318121815831603173E
:100A40008715D0308316031399009A01831203137C
:100A50009817181318168316031398168312031386
:100A60008C120C1208002A3083120313AA002A08E1
:100A7000AD00402D2E080A128A11CC250A128A11C7
:100A8000831203132908AB002808AA00A80A031937
:100A9000A90A2B08FF002A0884000A128A111A20CA
:100AA0000A128A11AC002C08AE002E08031D592D25
:100AB0005A2D3A2D08007330F3007308F600662DA6
:100AC00077080A128A11D6250A128A117208F400D0
:100AD0007108F300F10A0319F20A74088312031370
:100AE000FF00730884000A128A111A200A128A1160
:100AF000F5007508F7007708031D7F2D802D602D08
:100B000008008312031307140630F1003030F000A0
:100B1000F00B882DF10B882D0000831203130710B2
:100B20002F30F100BF30F000F00B942DF10B942D1D
:100B3000992D08008312031307140430F100E430E8
:100B4000F000F00BA12DF10BA12D00008312031377
:100B500007103130F1000B30F000F00BAD2DF10B30
:100B6000AD2DB22D08008312031307140330F100DA
:100B70009730F000F00BBA2DF10BBA2DBF2D831278
:100B8000031307103230F1005830F000F00BC62D7F
:100B9000F10BC62D0000080083120313A7000C1EE2
:100BA000D22DD32DCF2D270899000800F0008312F5
:100BB00003130C1EDC2DDD2DD72D700899000800C5
:04400E00D438FF3F64
:00000001FF
