:060000000A128A11142906
:10000800F000030EF100031383120B191D200C18C6
:100018001220710E8300F00E700E09000313831274
:10002800E1308F00031383127C308E00A80A0C1075
:1000380008007C2188012D182F28AD1835282D1986
:100048003B28AD1941282D1A4728AD1A4D282D1BDC
:100058005328AD1B59282008870008142D10AD140B
:100068000800210887008814AD102D150800220803
:10007800870008152D11AD1508002308870088157D
:10008800AD112D1608002408870008162D12AD168C
:100098000800250887008816AD122D1708002608C5
:1000A800870008172D13AD17080027088700881741
:0600B800AD132D14080039
:100200008A010A140F3982073F3406345B344F34B5
:1002100066346D347D3407347F346F3477347C3406
:1002200039345E34793471340317831688018901B7
:1002300003138316003085000614861406158612F3
:1002400006138613071087100711871107128712EC
:1002500007138713081088100811881108128812D4
:1002600008138813091089100911031383160F133B
:100270008F160F120F1403138316811303138316A3
:10028000151495141515951115129512151395132E
:100290000313831607309600031383128B178B15F5
:1002A0000B108B160B11031383168112811101148D
:1002B0008114011503138312FF3081000B11031306
:1002C0008312901610169010101403138312031348
:1002D00083124E3092000313831285018601870139
:1002E000880189010A30A900AA00AB00E621BB21E0
:1002F00082219521A821762903138312FF308100E2
:100300000B110800AC01AE0103103008AE000A303A
:10031000AC0AAE0203188829AC03AE072C080021F2
:10032000A0002E080021A1000800AC01AE010310BE
:100330003108AE000A30AC0AAE0203189B29AC03A8
:10034000AE072C080021A2002E080021A3000800FF
:10035000AC01AE0103103208AE000A30AC0AAE02A6
:100360000318AE29AC03AE072C080021A4002E0808
:100370000021A50008002F18CC29AF18D8292F1963
:10038000E22903112908B0002808B002031DCB2977
:100390002F140030A800080003112A08B100280813
:1003A000B102031DD7292F10AF140030A800080098
:1003B00003112B08B2002808B202031DE129AF1077
:1003C0002F150800A801AF010C10080033180D2AE2
:1003D000B3181E2A33192B2AB3193D2A331A4E2A71
:1003E000B31A5B2A331B6D2AB31B7E2A0311051037
:1003F0008510051585150512851209148910091136
:100400002908B5000630B5023508B4002808B50241
:10041000031D0C2A05113314080003110515F830CB
:10042000B900B90B112A051103303407B6002808AA
:10043000B602031D1D2A3310B314080003118514DE
:100440008C223A08B7002808B702031D2A2AB310E5
:1004500033158510080003118511051485162A0827
:10046000B5000630B5023508B4002808B502031DF2
:100470003C2A85123311B315080003118516F83094
:10048000B900B90B412A851203303407B600280899
:10049000B602031D4D2AB3113316080003110516C9
:1004A00006303407B7002808B702031D5A2A331252
:1004B000B3160512080003110910851509152A083D
:1004C000B5000630B5023508B4002808B502031D92
:1004D0006C2A0911B3123317080003110915F830FB
:1004E000B900B90B712A091103303407B600280886
:1004F000B602031D7D2A3313B317080003118914B4
:1005000006303407B7002808B702031D8B2AB3133F
:10051000381489100914080006303407BA0008009E
:04400E00C430FF3F7C
:00000001FF
