:060000000A128A11142906
:10000800F000030EF100031383120B1866200B197E
:100018001F200C181420710E8300F00E700E0900BA
:1000280003138312E1308F00031383127C308E0098
:10003800AF0A0C1008006D21880121183328A11877
:10004800372821193B28A1193F28211A4328A11A2A
:100058004728211B4B282608870008144F28270803
:100068008700881452282808870008155528290869
:100078008700881558282A08870008165B282B0847
:10008800870088165E282D088700081761282E0823
:100098008700881764280130A10608000330A106EC
:1000A80008000630A10608000C30A1060800183028
:1000B800A10608003030A10608006030A10608003B
:1000C800A1010800061C1223861C1B23061D8B2277
:0400D8000B10080001
:100200008A010A140F3982073F3406345B344F34B5
:1002100066346D347D3407347F346F3477347C3406
:1002200039345E34793471340317831688018901B7
:1002300003138316003085000614861406158612F3
:1002400006138613003087000030880009108910DB
:100250000911031383160F138F160F120F140313B4
:10026000831681130313831615149514151595120F
:100270001513951303138316073096000313831287
:100280008B178B150B108B160B1103138316811212
:1002900081110114811401156D210313831290162D
:1002A0001016901010140313831285018601870124
:1002B000880189010A30BB00B000B100B200E12121
:1002C000B6217D219021A3214018D622C018EA2210
:1002D0004019FE22C01924235F2903138312FF3023
:1002E00081000B110800CD22A201A301A501AF01DD
:1002F000C001B801B901BA010800B401B501031089
:100300003808B5000A30B40AB50203188329B403CB
:10031000B50734080021A60035080021A700080011
:10032000B401B50103103908B5000A30B40AB502AA
:1003300003189629B403B50734080021A80035082E
:100340000021A9000800B401B50103103A08B50066
:100350000A30B40AB5020318A929B403B507340852
:100360000021AA0035080021AB0008002218C72987
:10037000A218D3292219DD2903113008B8002F084B
:10038000B802031DC62922140030AF000800031173
:100390003108B9002F08B902031DD2292210A21476
:1003A0000030AF00080003113208BA002F08BA026B
:1003B000031DDC29A21022150800AF01A2010C10B8
:1003C00008002318082AA318192A2319262AA31972
:1003D000382A231A492AA31A562A231B682AA31B40
:1003E000792A03110510851005158515051285124A
:1003F0000914891009113008BC000630BC023C0801
:10040000B6002F08BC02031D072A0511231408009B
:1004100003110515F830A000A00B0C2A05110330BC
:100420003607BD002F08BD02031D182A2310A31490
:1004300008000311851487223708BE002F08BE026A
:10044000031D252AA310231585100800031185110B
:10045000051485163108BC000630BC023C08B60005
:100460002F08BC02031D372A85122311A31508008B
:1004700003118516F830A000A00B3C2A851203302A
:100480003607BD002F08BD02031D482AA3112316FD
:1004900008000311051606303607BE002F08BE02FD
:1004A000031D552A2312A316051208000311091073
:1004B000851509153108BC000630BC023C08B600A1
:1004C0002F08BC02031D672A0911A3122317080075
:1004D00003110915F830A000A00B6C2A0911033094
:1004E0003607BD002F08BD02031D782A2313A3176A
:1004F00008000311891406303607BE002F08BE021B
:10050000031D862AA3132414891009140800063039
:100510003607B7000800BF0A2518A22AA518B02A76
:100520002519BE2AA519CD2A861206138613031192
:100530000130B3003F083302031DA12A861625149B
:100540004014080003110230B3003F083302031DBA
:10055000AF2A861206172510A5144010C0140800F3
:1005600003110330B3003F083302031DBD2A0613F5
:100570008617A5102515C01040150800031104307A
:10058000B3003F083302031DCA2A861606178617D2
:100590002511A5154011C0150800AD01AE01861248
:1005A00006138613A501BF01C0010800C101B501F2
:1005B00003103B08C200C1000A30B50AC10203188B
:1005C000DD2AB503C10735080021AD00410800212F
:1005D000AE000800C101B50103103B08C300C10013
:1005E0000A30B50AC1020318F12AB503C10735085C
:1005F0000021AD0041080021AE000800C101B50195
:1006000003103B08C300C1000A30B50AC102031839
:10061000052BB503C10735080021AD0041080021B5
:10062000AE000800BB0A031115303B02031D1A2B54
:100630000A30BB000800BB03031109303B02031D55
:10064000232B1430BB00080000300021AD00003027
:100650000021AE00061C2F23861CCD220800461464
:1006600073214208B0004308B1004408B200F830DA
:0A067000A000A00B392B4610080073
:04400E00C430FF3F7C
:00000001FF
