:020000040000FA
:060000000A128A110E280D
:10000800FE00030EF0000408F1000A08F2000A12CC
:100018008A1144290A128A11112883132A30FD00F3
:100028000130FE00E430FF00203084000A128A11FB
:10003800C7210A128A11F901FA0183010A128A11E9
:10004800D62983120313AC01F41F2B282C2833283C
:10005800F309F409F30A0319F40AAC01AC0AF61F10
:10006800362837284028F509F609F50A0319F60A4B
:100078000130AA002A08AC06AD01AE017308740469
:100088000319472848287F28AB01AB0A56280130B6
:100098000310F30DF40DFF3E031D4C280130AA0098
:1000A8002A08AB07F41F59285A284B280130031097
:1000B800AD0DAE0DFF3E031D5B2874087602031DCF
:1000C800672873087502031C6A286B28722873084E
:1000D800F5027408031CF603F6022D140130031010
:1000E800F40CF30CFF3E031D73280130AB02031D13
:1000F8007E287F285A282C080319832884288928D1
:10010800AD09AE09AD0A0319AE0A2E08F4002D0890
:10011800F30008006430F3000030F4008312031386
:100128000508AF00B0012F08F5003008F6000A12E4
:100138008A1125200A128A11730883120313B10049
:100148003108F8006430F3000030F4000508AF000F
:10015800B0012F08F5003008F6000A128A11E920CC
:100168000A128A11730883120313B1003108F700C9
:100178000A30F3000030F4007708AF00B0012F0810
:10018800F5003008F6000A128A1125200A128A1191
:10019800730883120313B1003108B3000A30F30067
:1001A8000030F4007708AF00B0012F08F5003008E0
:1001B800F6000A128A11E9200A128A1173088312BA
:1001C8000313B1003108B200080083120313AC0115
:1001D800F61FEF28F028F728F509F609F50A03199C
:1001E800F60AAC01AC0AF41FFA28FB280029F30927
:1001F800F409F30A0319F40A7308740403190529A6
:1002080006293529AB01AB0A142901300310F30D77
:10021800F40DFF3E031D0A290130AA002A08AB0786
:10022800F41F17291829092974087602031D1E29A5
:1002380073087502031C2129222928297308F5024D
:100248007408031CF603F60201300310F40CF30CD7
:10025800FF3E031D29290130AB02031D342935292E
:1002680018292C08031939293A293F29F509F609CB
:10027800F50A0319F60A7608F4007508F300080071
:100288000B1D472948297A298312031309110914D8
:100298007808203E84008313000888000130F900A4
:1002A8000030FA0079037A04031D5B295C29672969
:1002B800091089143308203E8400000888000230A1
:1002C800F9000030FA00023079067A04031D6D291E
:1002D8006E297729891009153208203E8400000804
:1002E8008800F901FA010B11FF3081000B1C7D29F0
:1002F8007E298F29831203130618832984298729C5
:100308000508013E850086188A298B298E2905084B
:10031800FF3E85000B1072088A0071088400700E79
:100328008300FE0E7E0E0900831603130F138F162B
:100338000F120F14811281110115811401148316F3
:10034800031788018901831603138501061486148F
:1003580087018801890183120313850186018701BA
:10036800880189018316031381130330950016143D
:1003780096148B170B148B158B160B1108007E081F
:100388008A007F0882000A128A11C3210A128A1180
:100398008000840A04087D0603190034FF0A031943
:1003A800FE0AC7290A128A1198210A128A110A120A
:1003B8008A118E200A128A11DB290A128A110E2844
:1003C8003F3406345B344F3466346D347D3407343F
:0403D8007F346F34CB
:04400E00D420FF3F7C
:00000001FF
