:020000040000FA
:100000000A128A11FC2F00308A000408840A820731
:1000100000340D34203449346E3473346534723412
:100020007434613472342034633461347234613432
:10003000633474346534723420347034613472340F
:100040006134203464346534733470346C34653412
:10005000673461347234203465346E342034503463
:100060004F345234543441343A3420340D34003453
:100070000D34203449346E3473346534723474343E
:1000800061347234203463346134723461346334E3
:1000900074346534723420347034613472346134B1
:1000A000203464346534733470346C3465346734AC
:1000B00061347234203465346E34203450344F341B
:1000C0005234543442343A3420340D340034203421
:1000D000313420342D342034443465347334703456
:1000E0006C34653467346134723420346334613481
:1000F000643465346E3461342034643465342034BF
:10010000633461347234613463347434653472340A
:100110006534733420340D3400340D3420344334CA
:100120006134643465346E3461342034643465344D
:10013000203463346134723461346334743465342C
:100140007234653473342034633461347234673408
:1001500061346E3464346F342E342E342E342034B3
:100160000D3400342034323420342D3420344434DF
:100170006534733470346C3465346734613472348C
:10018000203450344F3452345434413420340D34FC
:1001900000342034333420342D3420344434653456
:1001A000733470346C3465346734613472342034A1
:1001B00050344F3452345434423420340D340034EB
:1001C0000D34203445346C3469346A34613420345D
:1001D00075346E34613420346F3470346334693470
:0C01E0006F346E343A3420340D34003497
:100E0000F000831203130C1E062F072F012F70080A
:100E1000990008000A128A1137270A128A110A1249
:100E20008A1166270A128A110F2F0A128A110028C6
:100E3000F4007030F1007108F200242F73080A12D8
:100E40008A1100270A128A110130F407FF30740753
:100E500084000A128A1103200A128A11F100710813
:100E6000F3007308031D352F362F1E2F080083163D
:100E700003130F178F160F160F148316031788010D
:100E800089018316031385018601831203138501EB
:100E900086018B170B17831603138C160C1618126A
:100EA0001815831603178715D0308316031399007E
:100EB0009A01831203139817181318168316031335
:100EC0009816831203138C120C1208000330F700DB
:100ED0008A30F6005530F500F50B6C2FF60B6C2FB1
:100EE000F70B6C2F732FD8300A128A1118270A12A9
:100EF0008A110330F7008A30F6005530F500F50B03
:100F00007F2FF60B7F2FF70B7F2F862F5F300A1274
:100F10008A1118270A128A110330F7008A30F60066
:100F20005530F500F50B922FF60B922FF70B922F01
:100F3000992FAA300A128A1118270A128A1103302F
:100F4000F7008A30F6005530F500F50BA52FF60BAB
:100F5000A52FF70BA52FAC2FC1300A128A11182725
:100F60000A128A11831203138C1EB72FB82FB22FC7
:100F700031301A06031DBD2FBE2FD12F0630F700CA
:100F80001330F600AD30F500F50BC42FF60BC42F6F
:100F9000F70BC42FCB2F85300A128A1118270A129B
:100FA0008A113230831203131A06031DD82FD92F4A
:100FB000E72F01300A128A1118270A128A118312A8
:100FC00003138C1EE42FE52FDF2F1A088500333022
:100FD0001A06031DEC2FED2FFB2F30300A128A1159
:100FE00018270A128A11831203138C1EF82FF92F67
:100FF000F32F1A088600080083010A128A110A2FAB
:04400E00D420FF3F7C
:00000001FF
