:020000040000FA
:060000000A128A110C280F
:10000800FE00030EF1000A08F2000A128A1167289E
:100018000A128A110F2883010A128A11942883165A
:1000280003130F178F160F160F14033083160317B9
:100038008800890183160313051485148701831228
:10004800031385018701831603139F131F129F1241
:10005800831203131F083F3980389F001F14C330D1
:100068009F052130F300F30B372883160313071578
:100078008714FA3092003F3083120313970517084C
:10008800F0390C3897000F3095001D08F0390C38FE
:100098009D000F309B00CF3097051D129D128C10CC
:1000A8000330920412158C1C5A285B2857288C1090
:1000B80083160313071187108B170B170C1783125E
:1000C80003130C130800831203130C1F6C286D28EC
:1000D8008D281F0CF000700C0F39003A031D75288D
:1000E80076287D281E08F0000310700C7C3E9500D1
:1000F8008C281F0CF000700C0F39013A031D85285D
:1001080086288C281E08F0000310700C7C3E9B008B
:100118000C1372088A00710E8300FE0E7E0E090011
:100128000A128A1113200A128A11831203139F14C8
:100138009F189F28A0289C281F0CF400740C0F39C6
:10014800013A031DA828A928AC28C3309F05B02868
:100158001F08C33904389F002130F400F40BB2287B
:0E016800831203139F149C280A128A110C287C
:04400E00D438FF3F64
:00000001FF
