:060000000A128A11182902
:10000800F000030EF100031383120C181F200B19C4
:100018002A20031383128C181920031383128C10BF
:10002800710E8300F00E700E090022181D2822148C
:1000380008002210080003138312E1308F00031315
:1000480083127C308E00A10A0C1008006221061071
:1000580086107618332874088700861436287508A1
:0A006800870006140130F6060800B8
:100200008A010A140F3982073F3406345B344F34B5
:1002100066346D347D3407347F346F3477347C3406
:0802200039345E347934713485
:10023000031783168801890103138316061086109D
:1002400007108710071187110712871207138713EA
:1002500008105B210313831681128111011481148C
:100260000115031383129016101690101014031327
:1002700083124E309200031383128B178B160B11CF
:10028000031383168C140C14031383128C100C109C
:1002900003138312850186018701880189010313F5
:1002A000831664309200031383126821221C6F218D
:1002B000221877214F29031383160F138F160F125D
:1002C0000F14080003138312FF3081000B11080084
:1002D00021080F39F200210E0F39F30008007208CF
:1002E0000021F40073080021F50008140800003014
:0802F000F400F50008100800FD
:04400E00C430FF3F7C
:00000001FF
