:060000000A128A11142906
:100200008A010A140F3982073F3406345B344F34B5
:1002100066346D347D3407347F346F3477347C3406
:1002200039345E34793471340317831688018901B7
:100230000313831605148514061086100611861103
:10024000003087000810031383160F138F160F1248
:100250000F1403138316C630810003138312850124
:10026000860187018801051C4221851C49210B1D3F
:1002700037293E21860A0810502133290B3081008E
:100280000B110800051C4229F00A700800218700A4
:100290000800851C4929F00B700800218700080020
:1002A0000608700203195521080008148601080089
:04400E00C430FF3F7C
:00000001FF
